:0C000E004B65796E756D203D2025640067
:10088500753A011200031209EF1209D412038A8F77
:100895003BE53B60157BFF7A00790EF53F12009032
:1008A500E53BFD7C007F081207C1120824EF600BB1
:1008B500C2A07FC87E00120A1DD2A0E5276015E4FC
:1008C500F5277B007A00792C12096F7B007A007975
:0B08D5002C1209B8AF3A120A7380B170
:100A1D00EF4E600F7D027CEFDCFEDDFCEF1F70F012
:030A2D001E80ED3B
:010A300022A3
:10082400E4F53C20B1137F14FE120A1D30B1FD7FA4
:10083400147E00120A1D753C0120B0147F147E0042
:10084400120A1D30B0FD7F147E00120A1D753C0291
:1008540020B2147F147E00120A1D30B2FD7F147E74
:1008640000120A1D753C0320B3147F147E00120A83
:100874001D30B3FD7F147E00120A1D753C04AF3C8D
:010884002251
:05001E00AF577E002237
:030A7300020A571D
:06000300E4F557F556225A
:0B0A57008F3CE55714700312091422B5
:04002600E4F5562285
:10091400E5561460161460232402702220B1037576
:1009240056017D027C007F010207547D017C007F1B
:0F0934000112075420B007E4F55622E4F55722CC
:1009940018083F065B4F666D7D077F6F777C395E75
:0A09A40079717638373E735C40002D
:10075400EF14B40800505490076975F003A4C583DE
:1007640025F0C58373020781020785020789020702
:100774008D0207910207990207A10207A9D2A4805A
:100784000ED2A48012D2A48016D2A4801AC2A4D2FB
:10079400A3D2A28016C2A4D2A3C2A2800EC2A4C2B3
:1007A400A3D2A28006C2A4C2A3C2A274082DF8E6F2
:0D07B400F5807F017E00120A1DE4F5802211
:1007C100EF14B4080050549007D675F003A4C58304
:1007D10025F0C583730207EE0207F20207F602074E
:1007E100FA0207FE02080602080E020816D2A480C9
:1007F1000ED2A48012D2A48016D2A4801AC2A4D28E
:10080100A3D2A28016C2A4D2A3C2A2800EC2A4C245
:10081100A3D2A28006C2A4C2A3C2A274082DF8E684
:03082100F580223D
:10038A00E4F53C7590FFC2932097137F14FE120A7E
:10039A001D3097FD7F147E00120A1D753C012096C0
:1003AA00147F147E00120A1D3096FD7F147E0012FF
:1003BA000A1D753C052095147F147E00120A1D3013
:1003CA0095FD7F147E00120A1D753C092094147F46
:1003DA00147E00120A1D3094FD7F147E00120A1D3D
:1003EA00753C0D7590FFC2922097147F147E0012FF
:1003FA000A1D3097FD7F147E00120A1D753C0220EB
:10040A0096147F147E00120A1D3096FD7F147E001A
:10041A00120A1D753C062095147F147E00120A1DCF
:10042A003095FD7F147E00120A1D753C0A20941433
:10043A007F147E00120A1D3094FD7F147E00120A7A
:10044A001D753C0E7590FFC2912097147F147E0093
:10045A00120A1D3097FD7F147E00120A1D753C0397
:10046A002096147F147E00120A1D3096FD7F147E9A
:10047A0000120A1D753C072095147F147E00120A8B
:10048A001D3095FD7F147E00120A1D753C0B2094C9
:10049A00147F147E00120A1D3094FD7F147E001210
:1004AA000A1D753C0F7590FFC2902097147F147E29
:1004BA0000120A1D3097FD7F147E00120A1D753C3A
:1004CA00042096147F147E00120A1D3096FD7F14B4
:1004DA007E00120A1D753C082095147F147E0012B6
:1004EA000A1D3095FD7F147E00120A1D753C0C20F2
:1004FA0094147F147E00120A1D3094FD7F147E002E
:08050A00120A1D753C10AF3C04
:0105120022C6
:1009EF005389F0438901758CFC758A18C28DD28C9E
:0709FF00D2A9D2AFC2B92258
:100A060053890F438910758B20758DD1C28FD28E75
:070A1600D2ABD2AFC2BB223C
:100A3100E4F5C9F5C875CCFC75CD17D2CAD2ADD2D3
:040A4100AFC2BD2261
:03000B00020943A4
:10094300C0E0C0D0C28C758CFC758A180553E55382
:1009530070020552C39464E552940040080551E5C2
:0C0963005170020550D28CD0D0D0E03290
:03001B00020009D7
:0100090032C4
:03002B000208E0E8
:1008E000C0E0C0D075D000C000C006C2CFE554251E
:1008F000E02400F8E6FE08E64E6010E55425E0240A
:1009000000F8E6FE08E6F58AEEF58CD006D000D0B9
:04091000D0D0E03231
:100A450055AA8000808055AA8100818155AA82001F
:020A550082829B
:0909AE00013600012700013900A7
:1009D40075985043878053890F438920758BF3752D
:0B09E4008DF3C2ABD28ED2AFD2AC229A
:030A6200EE93FF11
:080A65008F993099FDC299221E
:10096F008B3C8A3D893EAB3CAA3DA93E12061860DE
:10097F0013053EE53E7002053D14F9120618FF12ED
:05098F000A6580E22270
:060A6D00AE07120A65222B
:0609B8008B3C8A3D893EE4
:1009BE00E4FFAB3CAA3DA93E8F82758300E412068C
:0509CE00310FBF0AED2E
:0109D3002201
:03002300020513C0
:10051300C0E0C083C082C0D075D000C000C005C099
:0305230006C00708
:10052600209803020607C298AD99E539B407004042
:1005360003020607900541F82828730205560205AE
:10054600610205730205860205950205B50205D30B
:10055600BD5506753901020607800CBDAA09753915
:10056600027536000206077539000206078D228DD0
:1005760023742C2536F8A6050536753903020607B9
:10058600ED2522F522ED6223F5247539048072EDFE
:100596002522F522ED6223742C2536F8A605E536CC
:1005A600B52405753905800375390405368052E58D
:1005B60022B5050575390680487527017539007E0F
:1005C60000900A4B120A620EBE06F68034E523B589
:1005D60005117527017E00900A45120A620EBE06B5
:1005E600F680127527017E00EE900A5193FF120ADB
:1005F600650EBE06F3753900753600752200752343
:0106060000F3
:10060700D007D006D005D000D0D0D082D083D0E09C
:0106170032B0
:030000000206C82D
:0C06C800787FE4F6D8FD75815702070F1B
:10061800BB010689828A83E0225002E722BBFE02E0
:09062800E32289828A83E4932213
:10063100F8BB010DE58229F582E5833AF583E8F0FF
:10064100225006E92582C8F622BBFE05E92582C8AB
:02065100F22293
:10002E00E54B243FF8E6054B22783C300702783F3B
:10003E00E475F0011206920206182000EB7F2ED214
:10004E00008018EF540F2490D43440D4FF30040BAA
:10005E00EF24BFB41A0050032461FFE54C60021573
:10006E004C054FE54F7002054E30070D783CE47598
:10007E00F001120692EF020680020A6D7403D20797
:10008E008003E4C207F54B8B3C8A3D893EE4F54C78
:10009E00F54EF54FE54C60077F2012006980F5752F
:1000AE004DFFC201C200C202C203C205C206C2088F
:1000BE00120037FF700D3007057F0012007AAF4F28
:1000CE00AE4E22B4255FC2D5C204120037FF24D033
:1000DE00B40A00501A75F00A784C30D50508B6FFF0
:1000EE000106C6A426F620D5047002D20380D924B8
:1000FE00CFB41A00EF5004C2E5D20402027AD20144
:10010E0080C6D20080C0D20280BCD2D580BAD205C1
:10011E0080B47F201200692002077401B54C0040A4
:10012E00F112002EFF1200690200A2D208D2068040
:10013E009512002EFB12002EFA12002EF94A4B7069
:10014E0006794B7A037BFF20022EE54C602A7E0057
:10015E008E8275830012065360060EEE654D70F0AA
:10016E00C2D5EBC0E0EAC0E0E9C0E0EE1202C1D0B9
:10017E00E0F9D0E0FAD0E0FB120618FF60AAEBC05F
:10018E00E0EAC0E0E9C0E0120069D0E02401F9D055
:10019E00E03400FAD0E0FBE54D0460DCD54DD980AB
:1001AE00877BFF7A0279BDD202809C79108002791A
:1001BE0008C206C2088008D2D5790A8004790AC21C
:1001CE00D5E54D047002F54DE4FAFDFEFF12002E4A
:1001DE00FC7B0820011312002EFD7B1030000A124A
:1001EE00002EFE12002EFF7B20EC3382D592D550CE
:1001FE0013C3E43000069FFFE49EFEE42001039D3E
:10020E00FDE49CFCE4CBF8C201EC700CCFCECDCC5F
:10021E00E824F8F870F38017C3EF33FFEE33FEEDEA
:10022E0033FDEC33FCEB33FB994002FB0FD8E9EBCB
:10023E00300105F8D0E0C448B201C0E00AEC4D4EE2
:10024E004F78207B0070C2EAB54D0040BCC0E01272
:10025E0002C3D0F0D0E0200104C4C0E0C4B201C09B
:10026E00F0120052D0F0D5F0EB0200A21206A2015D
:10027E003F5301B95801104C010C4201BD4F01C54D
:0F028E004401C54901254301CB5501AF4601AFDE
:10029D004501AF47036B5001142D01182E013B2B67
:1002AD00011C2301392003542A00D44800000133D6
:1002BD003F3F3F00790AA2D5200314300509B9103C
:1002CD00020404B9080104A2D5200602500104203D
:1002DD0002689202B54C005034C0E07F2030031903
:1002ED007F30A20272067205500F12031AC202C2AB
:1002FD0006C205C2087F30800F300503E9C0E01249
:10030D000069300503D0E0F9D0E0B54CCC300517CD
:10031D007F30B9100C1200697F583004077F788048
:10032D0003B908031200693002057F2D0200697FB1
:10033D00202008F87F2B2006F322920280CF286E12
:10034D00756C6C2900D20112002E3001F8C20178B3
:10035D004C30D50108F60200D42D504349581200F7
:10036D002E2403B405004001E49003669312005A55
:0D037D00743A12005AD203754C040201B903
:1006D400020885E493A3F8E493A34003F68001F2AF
:1006E40008DFF48029E493A3F85407240CC8C33327
:1006F400C4540F4420C8834004F456800146F6DFF6
:10070400E4800B0102040810204080900994E47EE8
:10071400019360BCA3FF543F30E509541FFEE493EA
:10072400A360010ECF54C025E060A840B8E493A3B1
:10073400FAE493A3F8E493A3C8C582C8CAC583CADC
:10074400F0A3C8C582C8CAC583CADFE9DEE780BE94
:0109B700003F
:10065300BB010CE58229F582E5833AF583E022505C
:1006630006E92582F8E622BBFE06E92582F8E222A6
:0D067300E58229F582E5833AF583E49322C0
:10068000BB010689828A83F0225002F722BBFE0159
:02069000F32253
:10069200FAE6FB0808E6F925F0F618E6CA3AF62269
:1006A200D083D082F8E4937012740193700DA3A3E7
:1006B20093F8740193F5828883E4737402936860FB
:0606C200EFA3A3A380DFFB
:00000001FF
