:100365007518011203CA12037D1203487F66120035
:0803750003AF181203D980F94F
:1003A900EF4E600F7D027CEFDCFEDDFCEF1F70F08D
:0303B9001E80EDB6
:0103BC00221E
:10029000E4F51A20B0137F14FE1203A930B0FD7FDD
:1002A000147E001203A9751A0120B1147F147E0078
:1002B0001203A930B1FD7F147E001203A9751A0242
:1002C00020B2147F147E001203A930B2FD7F147E89
:1002D000001203A9751A0320B3147F147E001203C1
:1002E000A930B3FD7F147E001203A9751A04AF1A5A
:0102F00022EB
:0503D000AF177E0022C2
:0303D90002039488
:0603CA00E4F517F5162210
:100394008F19E51714600A04700A20B00775170155
:0503A400221202F1220B
:0403D500E4F5162213
:1002F100E5161460161460232402702220B00375E1
:1003010016017D027C007F010202237D017C007FBA
:0F0311000112022320B107E4F51622E4F51722AA
:0C03BD000A083F065B4F666D7D077F6FEE
:10022300EF14B40800505490023875F003A4C5834A
:1002330025F0C583730202500202540202580202DF
:100243005C020260020268020270020278D2A48099
:100253000ED2A48012D2A48016D2A4801AC2A4D231
:10026300A3D2A28016C2A4D2A3C2A2800EC2A4C2E9
:10027300A3D2A28006C2A4C2A3C2A274082DF8E628
:0D028300F5807F017E001203A9E4F58022C2
:10000E00E4F51B7590FFC2932097137F14FE120325
:10001E00A93097FD7F147E001203A9751B0120964F
:10002E00147F147E001203A93097FD7F147E0012F8
:10003E0003A9751B052095147F147E001203A930A9
:10004E0097FD7F147E001203A9751B092094147F5F
:10005E00147E001203A93097FD7F147E001203A9AF
:10006E00751B0D7590FFC2922097147F147E00129F
:10007E0003A93097FD7F147E001203A9751B022081
:10008E0096147F147E001203A93097FD7F147E0014
:10009E001203A9751B062095147F147E001203A966
:1000AE003097FD7F147E001203A9751B0A2094144D
:1000BE007F147E001203A93097FD7F147E00120379
:1000CE00A9751B0E7590FFC2912097147F147E00A8
:1000DE001203A93097FD7F147E001203A9751B032E
:1000EE002096147F147E001203A93097FD7F147E94
:1000FE00001203A9751B072095147F147E001203AE
:10010E00A93097FD7F147E001203A9751B0B209456
:10011E00147F147E001203A93097FD7F147E001207
:10012E0003A9751B0F7590FFC2902097147F147E44
:10013E00001203A93097FD7F147E001203A9751BD0
:10014E00042096147F147E001203A93097FD7F14AD
:10015E007E001203A9751B082095147F147E0012D1
:10016E0003A93097FD7F147E001203A9751B0C2086
:10017E0094147F147E001203A93097FD7F147E0025
:08018E001203A9751B10AF1B41
:010196002246
:10037D005389F0438901C28DD28C758CFC758A1816
:07038D00D2A9D2AFC2B922D0
:0103DC0022FE
:0103DD0022FD
:03000B00020320CD
:10032000C0E0C0D0758CFC758A180515E515700203
:100330000514C39464E514940040080513E5137094
:08034000020512D0D0D0E0321A
:1003480075985043878053890F438920C28FD28E76
:0D035800758BF3758DF3D2ABD2AFC2BB2213
:080003008F993099FDC299228A
:0300000002019763
:0C019700787FE4F6D8FD75811B0201DEC4
:1001A300020365E493A3F8E493A34003F68001F20A
:1001B30008DFF48029E493A3F85407240CC8C3335D
:1001C300C4540F4420C8834004F456800146F6DF2C
:1001D300E4800B01020408102040809003BDE47EFC
:1001E300019360BCA3FF543F30E509541FFEE49321
:1001F300A360010ECF54C025E060A840B8E493A3E8
:10020300FAE493A3F8E493A3C8C582C8CAC583CA12
:10021300F0A3C8C582C8CAC583CADFE9DEE780BECA
:0103C9000033
:00000001FF
