:0F1389004B65796E756D203D202564002563004E
:100E020078867401F21213C21212FA121293120AA3
:100E12002B7802EFF260187BFF7A137989E2788AE5
:100E2200F212061F7802E2FD7C007F08121068129F
:100E32000FFC7801EFF260317F647E0012121778A6
:100E420001E2B401097D057C007F0112119B78014A
:100E5200E2B402157F011210CB7800EFF27BFF7A29
:100E6200137995788AF212061F7826E26018E4F266
:100E7200782BE2FF7BFE7A00792B1211377BFE7A08
:100E820000792B1211F27886E2FF120026020E1070
:10133D00EF4E600F7D027CEFDCFEDDFCEF1F70F0E9
:03134D001E80ED12
:01135000227A
:10132800EF1FAC0670011E4C600A7D027CEFDCFEEC
:04133800DDFC80EC6C
:01133C00228E
:100FFC00E47887F220B1157F14FE12133D30B1FD59
:10100C007F147E0012133D78877401F220B0167F96
:10101C00147E0012133D30B0FD7F147E0012133D80
:10102C0078877402F220B2167F147E0012133D30C2
:10103C00B2FD7F147E0012133D78877403F220B347
:10104C00167F147E0012133D30B3FD7F147E001208
:0B105C00133D78877404F27887E2FFF0
:011067002266
:070003007804E2FF7E0022F9
:030026000212764D
:0713C200E47804F218F222A6
:101276007887EFF27804E214600F04700F7801E2C9
:0D128600B4040978047403F222121103224B
:05001E00E47803F2226A
:101103007803E21460181460262402702620B105C7
:1011130078037401F27D027C007F01020F8F7D0151
:101123007C007F01120F8F20B009E47803F222E4E0
:041133007804F22228
:100F1E0098053F065B4F666D7D077F6F777C395E68
:0A0F2E0079717638373E735C40009D
:100F8F00EF14B408005054900FA475F003A4C58358
:100F9F0025F0C58373020FBC020FC0020FC4020FEE
:100FAF00C8020FCC020FD4020FDC020FE4D2A480D0
:100FBF000ED2A48012D2A48016D2A4801AC2A4D2B8
:100FCF00A3D2A28016C2A4D2A3C2A2800EC2A4C270
:100FDF00A3D2A28006C2A4C2A3C2A274052DF8E2B6
:0D0FEF00F5807F017E0012133DE4F58022A5
:10106800EF14B40800505490107D75F003A4C583A4
:1010780025F0C5837302109502109902109D021085
:10108800A10210A50210AD0210B50210BDD2A480B5
:101098000ED2A48012D2A48016D2A4801AC2A4D2DE
:1010A800A3D2A28016C2A4D2A3C2A2800EC2A4C296
:1010B800A3D2A28006C2A4C2A3C2A274052DF8E2DC
:0310C800F580228E
:100A2B00E47887F27590FFC2932097157F14FE121E
:100A3B00133D3097FD7F147E0012133D78877401B0
:100A4B00F22096167F147E0012133D3096FD7F1414
:100A5B007E0012133D78877405F22095167F147E65
:100A6B000012133D3095FD7F147E0012133D7887E5
:100A7B007409F22094167F147E0012133D3094FDFE
:100A8B007F147E0012133D7887740DF27590FFC2B0
:100A9B00922097167F147E0012133D3097FD7F1422
:100AAB007E0012133D78877402F22096167F147E17
:100ABB000012133D3096FD7F147E0012133D788794
:100ACB007406F22095167F147E0012133D3095FDAF
:100ADB007F147E0012133D7887740AF22094167FE0
:100AEB00147E0012133D3094FD7F147E0012133DD3
:100AFB007887740EF27590FFC2912097167F147E43
:100B0B000012133D3097FD7F147E0012133D788742
:100B1B007403F22096167F147E0012133D3096FD5F
:100B2B007F147E0012133D78877407F22095167F91
:100B3B00147E0012133D3095FD7F147E0012133D81
:100B4B007887740BF22094167F147E0012133D30BD
:100B5B0094FD7F147E0012133D7887740FF275900D
:100B6B00FFC2902097167F147E0012133D3097FD25
:100B7B007F147E0012133D78877404F22096167F43
:100B8B00147E0012133D3096FD7F147E0012133D30
:100B9B0078877408F22095167F147E0012133D306F
:100BAB0095FD7F147E0012133D7887740CF2209410
:100BBB00167F147E0012133D3094FD7F147E0012BD
:0B0BCB00133D78877410F27887E2FF7A
:010BD60022FC
:1012FA005389F0438901758A18758CFCC28DD28C8A
:07130A00D2A9D2AFC2B92243
:1013110053890F438910758B20758DD1C28FD28E61
:07132100D2ABD2AFC2BB2228
:10135100E4F5C9F5C875CCFC75CD17D2CAD2ADD2AA
:04136100AFC2BD2238
:03000B0002000AE6
:01000A0032C3
:03001B00020029B7
:0100290032A4
:03002B0002002AA6
:01002A0032A3
:1013650055AA8000808055AA8100818155AA8200F6
:02137500828272
:090F38008135008126008138009A
:1012930075985043878053890F438920758BF37565
:0B12A3008DF3C2ABD28ED2AFD2AC22D2
:0313A400EE93FFC6
:0813A7008F993099FDC29922D3
:101137007887EBF208EAF208E9F27887E2FB08E23F
:10114700FA08E2F91204F6601A7887E2FB0808E267
:10115700F92401F218E2FA3400F21204F6FF12132E
:04116700A780D72264
:0613D000AE071213A72274
:0A11F2007887EBF208EAF208E9F250
:1011FC00E4FF7887E2FB08E2FA08E2F98F82758354
:0A120C0000E412054E0FEFB40AE8EB
:0112160022B5
:03002300020BD7F6
:100BD700C0E0C083C082C0D075D000C000C004C0D0
:050BE70005C006C00777
:100BEC00209803020CFEC298AD997838E2B4070045
:100BFC004003020CFE900C08F8282873020C1D020E
:100C0C000C2E020C43020C5E020C72020C9D020CA8
:100C1C00C1ED7838B455067401F2020CFEE4F20210
:100C2C000CFEED7838B4AA0A7402F27835E4F202BC
:100C3C000CFEE4F2020CFE7821EDF208F27835E2BB
:100C4C00242BF8EDF27835E204F278387403F202D2
:100C5C000CFE7821E22DF208E26DF208EDF2783804
:100C6C007404F2020CFE7821E22DF208E26DF278A7
:100C7C0035E2FF242BF8EDF27823E2FCEF7838B55F
:100C8C0004057405F280037404F27835E204F280F2
:100C9C00617821E2B5050778387406F2805478261D
:100CAC007401F27838E4F2FE90136B1213A40EEE7A
:100CBC00B406F5803DAF057822E2B50714782674AA
:100CCC0001F27E009013651213A40EEEB406F580AB
:100CDC001578267401F27E00EE90137193FF1213B7
:100CEC00A70EEEB406F27838E4F27835F27821F2F9
:020CFC0008F2FC
:100CFE00D007D006D005D004D000D0D0D082D0837B
:030D0E00D0E03200
:100D1100000400040004160218021906180219043E
:100D21001D04180C110211021606140216041904EE
:100D3100140C110412061102120419041108000204
:100D410019021902190218061302130418041808CB
:100D51000004160218021906180219041D04180CC1
:100D6100110211021606140216041904140C0F02C2
:100D7100110212041902180419061B021B021D029A
:100D8100190A190218021602160218041504160C83
:100D910019021B021D061B021D0420041B0C140258
:100DA10014021906180219041D041D101602180256
:100DB100190418041B021B021906140A1E041D043F
:100DC1001D0419041D0C1D042208200420041D0209
:100DD1001B021908000219021B0419021B021B0441
:100DE10020041D0C1D04220820081D021B021908E5
:100DF100000219021B0419021B061804160C000438
:010E0100FFF1
:100F4100A04A3B0000F88CF8F3F95BF9B8FA15FAFE
:100F510067FAB9FB04FB4BFB90FBCFFC10FC44FC94
:100F610079FCACFCDCFD09FD34FD5CFD82FDA6FDD8
:100F7100C8FDE8FE06FE22FE3DFE56FE6EFE85FE23
:0D0F81009AFEAEFEC1FED3FEE4FEF4FF03B7
:0513D600007FF7DFFEBF
:0113DB0022EF
:04121700AD07AC066D
:10121B00E4FBFAED25E0FFEC33FEC3EB9FEA9E50B7
:0D122B000CB2951213D60BBB00010A80E631
:011238002293
:10119B007887EFF208ECF208EDF21213B97FA01288
:1011AB0011C81213987887E2FF1211C8121398789E
:0D11BB008808E2FF1211C81213980213C930
:0410CB007887EFF241
:1010CF001213B97FA01211C81213987887E2FF127A
:1010DF0011C81213981213B97FA11211C8121398C5
:1010EF001212397888EFF27F011213AF1213C978F9
:0310FF0088E2FF85
:0111020022CA
:0913B900D2A0D2A1C2A0C2A1225F
:0713C900C2A0D2A1D2A022B4
:0211C800AD0771
:1011CA00E4FB74807E00A803088006CEA2E713CE53
:1011DA0013D8F8FFEDF582EF558224FF92A0D2A131
:0711EA00C2A10BEBB408DB0E
:0111F10022DB
:10123900E4FFD2A0FED2A130A00D7480A8060880D8
:0E12490002C313D8FC4FFFC2A10EEEB408E79B
:011257002274
:0A13AF00EF24FF92A0D2A1C2A122F8
:0B139800D2A0D2A1A2A0E433FFC2A1AA
:0113A3002227
:0D000E001212AE7FCC1212C87F440212C83D
:10116B001212AE7FCC1212C87FBE1212C8121258C6
:10117B007885EFF2121258EFFE7885E2FDEDFFACA9
:0F118B0006EC1200D3E4FBFA79807841120031B0
:01119A002232
:1012AE00D2B7C2B77FF7DFFED2B77F20DFFEA2B77D
:0912BE00E433FE7FF7DFFEAF060A
:0112C7002204
:10137700C2B77E04DEFEEF24FF92B77E18DEFED2F0
:01138700B7AE
:011388002242
:1012E200C2B77F02DFFED2B77F02DFFEA2B7E433CE
:0712F200FE7F18DFFEAF06CE
:0112F90022D2
:0212C800AD0770
:1012CA00E4FC7401A804088002C333D8FC5DFF1251
:0712DA0013770CECB408EBE4
:0112E10022EA
:10125800E4FDFC1212E2EF600D7401A8040880029C
:0D126800C333D8FC4DFD0CECB408E8AF0515
:011275002256
:10002E0002014BEC5D046005E859047003020141C6
:10003E0012010C580460F6EC4860F2EC7004FDFE00
:10004E00FF22C860DB2481C85009C39860025006A5
:10005E000201489850CAF582E9294B4A7005AB82D5
:10006E0002013775F0007C1A7880C3EF9BEE9AED93
:10007E0099400DC3EF9BFFEE9AFEED99FDE842F01D
:10008E00DC23ACF0D0E0FFD0E0FED0E0FDAB822070
:10009E00E7101BEB60BAEC2CFCEF33FFEE33FEEDFA
:1000AE0033FD020123E803F830E705C0F075F000D8
:1000BE00EF2FFFEE33FEED33FD40B830E7C280AADE
:1000CE0075F020800E75F010800575F0087D007EAD
:1000DE00007F003392D530D503120570EC334010FB
:1000EE00EF33FFEE33FEED33FDEC33FCD5F0ED22B6
:0E00FE00E5F0247EA2D513CC92E7CDCEFF22F2
:1005BD00E508248AF8E20508227887300702788A50
:1005CD00E475F00112057E0204F62000EB7F2ED2B9
:1005DD00008018EF540F2490D43440D4FF30040B16
:1005ED00EF24BFB41A0050032461FFE50960021522
:1005FD0009050CE50C7002050B30070D7887E475C5
:10060D00F00112057EEF02053C0213D07403D207F0
:10061D008003E4C207F508788712058EE4F509F525
:10062D000BF50CE50960077F201205F880F5750ABA
:10063D00FFC201C200C202C203C205C206C2081235
:10064D0005C6FF700D3007057F00120609AF0CAE11
:10065D000B22B4255FC2D5C2041205C6FF24D0B447
:10066D000A00501A75F00A780930D50508B6FF0151
:10067D0006C6A426F620D5047002D20380D924CF55
:10068D00B41A00EF5004C2E5D2040208F5D201807D
:10069D00C6D20080C0D20280BCD2D580BAD205802D
:1006AD00B47F201205F82002077401B5090040F14E
:1006BD001205BDFF1205F8020630D208D20680954C
:1006CD001205BDFB1205BDFA1205BDF94A4B7006A8
:1006DD0079EC7A097BFF20022EE509602A7E008ED7
:1006ED008275830012050F60060EEE650A70F0C26A
:1006FD00D5EBC0E0EAC0E0E9C0E0EE120955D0E06C
:10070D00F9D0E0FAD0E0FB1204F6FF60AAEBC0E0EE
:10071D00EAC0E0E9C0E01205F8D0E02401F9D0E02C
:10072D003400FAD0E0FBE50A0460DCD50AD98087F5
:10073D00D20280A212093860F7E50A700104120195
:10074D0056A90A600DE50A600914F50A1209DFEFD2
:10075D0060F3EA30E702F404C3995077EAF4250A0E
:10076D000430E701E404F50A800D12093860C1EA8E
:10077D00050A250A120156EA789DF230E701E425B3
:10078D000A04D50A0420050114120955E4C0E0122B
:10079D0009DF789DE2601320E70714F21205E0806F
:1007AD002204F2D0E014C0E07F001205E0E50A60FB
:1007BD00071205D7150A800B3005031205D7D0E0B7
:1007CD00020630D0E00480C512093860A0E50A04A5
:1007DD00120156789DEAF2E50A2005026001042413
:0C07ED000412095574FF04C0E01209DF7B
:1007F9001205E0E50A20050260031205D7D0E0B52D
:100809000AE87F451205EA789DE27F2B30E7047FED
:100819002DF404C0E01205F8D0E075F00A84C0F0A8
:100829001205E1D0E01205E1020630791080027963
:1008390008C206C2088008D2D5790A8004790AC29A
:10084900D5E50A047002F50AE4FAFDFEFF1205BDBA
:10085900FC7B082001131205BDFD7B1030000A1234
:1008690005BDFE1205BDFF7B20EC3382D592D55024
:1008790013C3E43000069FFFE49EFEE42001039DBC
:10088900FDE49CFCE4CBF8C201EC700CCFCECDCCDE
:10089900E824F8F870F38017C3EF33FFEE33FEED69
:1008A90033FDEC33FCEB33FB994002FB0FD8E9EB4A
:1008B900300105F8D0E0C448B201C0E00AEC4D4E61
:1008C9004F78207B0070C2EAB50A0040BCC0E01234
:1008D9000957D0F0D0E0200104C4C0E0C4B201C07F
:1008E900F01205E1D0F0D5F0EB02063012059706BB
:1008F900CD53083458069E4C069A4208384F084092
:100909004408404906B34308465507774607D54585
:100919000741470A0C5006A22D06A62E06C92B062A
:10092900AA2306C72009F52A066248000006C1E580
:100939000AB4FF03750A061205BDFC1205BDFD12B6
:1009490005BDFE1205BDFF7896020185790AA2D57B
:10095900200314300509B910020404B9080104A2DE
:10096900D52006025001042002689202B509005000
:1009790034C0E07F203003197F30A202720672056D
:10098900500F1209AEC202C206C205C2087F3080EA
:100999000F300503E9C0E01205F8300503D0E0F98E
:1009A900D0E0B509CC3005177F30B9100C1205F825
:1009B9007F583004077F788003B908031205F8309F
:1009C90002057F2D0205F87F202008F87F2B2006DD
:1009D900F322920280CF7F00B4070050052496F8D5
:1009E900E2FF22286E756C6C2900D2011205BD3018
:1009F90001F8C201780930D50108F60206622D50C6
:100A09004349581205BD2403B405004001E4900A86
:100A190007931205E9743A1205E9D203750904022C
:020A290008348F
:10010C00E9D2E7C933E833F892D5EDD2E7CD33EC39
:07011C0033FC5002B2D522B2
:10012300EC30E7100FBF000C0EBE00080DBD00043D
:100133000BEB6014A2D5EB13FCED92E7FD2274FFE9
:10014300FCFDFEFF22E480F8A2D574FF13FC7D8042
:03015300E480EF56
:10015600F920E72824F950037907E4F42402FB1870
:10016600DBFDE224FB5014E9600DE4F218E204F230
:0F017600B40A08E4F2D9F57401F20A22C2D522C4
:10018500ED33EC3392D5FA602AB4FF33EDC2E77B49
:10019500FF60067A0179AAE4227A0179B320D504B1
:1001A5007A0179AE224E614E002B494E46002D490B
:1001B5004E4600E47A08F208DAFC7B00740722E870
:1001C500C0E0ECC0E0EDC0E0EEC0E0EFC0E0EA75F5
:1001D500F010A4CAABF075F04DA42BFBE435F0FC90
:1001E500EA2410FAEB34C5FBEC34D9FCEDC2E7FF89
:1001F50075F056A4F42411C5F0F434C58FF0A42A83
:10020500E5F03BE43CF220E7141204B6D0E0FFD061
:10021500E0FED0E0FDD0E0FC1200318014F40412C1
:1002250004B6D0E0FFD0E0FED0E0FDD0E0FC120344
:1002350080D0E0F8E2FAEDD2E7CD33EC332482FB4F
:10024500E4C3CF33CFCE33CECD33CD33DBF37B0712
:1002550075F00A846004F2081B0AE5F0F2088FF0D5
:10026500740AA4FFACF08EF0740AA42CFEACF05016
:10027500010C8DF0740AA42CFDE435F0F208DBDEE8
:03028500740722D9
:10028800020141E86480F8E933E83360110460F062
:10029800ED33EC337009E8FCE9FDEAFEEBFF2204DC
:1002A80060DED3EB9FEA9EE99DE8C2E78CF0C2F7D7
:1002B80095F0400CE8CCF8E9CDF9EACEFAEBCFFBA3
:1002C80012010C85D0F05804700320D5B3E80470EF
:1002D800075002B2D502014B92D5EC0460F7E4CC8A
:1002E800C0E0C398F8603B94186008400DD0E0FB6C
:1002F800020123E4FBFAC9FC8028E830E406E4C9DB
:10030800FBE4CAFCE830E305E4C9CACBFCE85407BF
:100318006010F8C3E913F9EA13FAEB13FBEC13FCCA
:10032800D8F130F52FC3E49CFCEF9BFFEE9AFEED6D
:1003380099FDD0E0FBEF4E4D4C701222DB03020119
:1003480048EC2CFCEF33FFEE33FEED33FDED30E7E8
:10035800EB020123EF2BFFEE3AFEED39FDD0E0FB77
:1003680050130BBB000302014BED13FDEE13FEEF20
:0803780013FFEC13FC0201234A
:10038000EC4D6011E8497017ED33EC3304600DE477
:10039000FCFFFEFD22E933E8330470F8020141124C
:1003A000010C58046009E4CC24815006285009024D
:1003B000014B284003020148C0E0EB4A7044B98079
:1003C00006D0E0FB020137EF4E701CBD8008EBFF4A
:1003D000EAFEE9FD80EBE98DF0A4FEE5F002046998
:1003E000E9CDF9EAFEEBFFEF89F0A4FCE5F0CE8958
:1003F000F0A42EFFE435F0CD89F0A42DFEE435F015
:100400008067EF4E7005BD80D780C3EF8BF0A4AC42
:10041000F0EE8BF0A42CFCE435F0F8EF8AF0A42C7D
:10042000E5F038FCE433CB8DF0A42CFCE5F03BF890
:10043000EE8AF0A42CFCE5F038F8E433CF89F0A480
:100440002CFCE5F038CF3400CE89F0A42FFFE5F086
:100450003EFEE433C98DF0A42EFEE5F039CD8AF0DE
:10046000A42FFFE5F03EFEE43DFD33D0E0FB500756
:100470000BBB000F02014BEC2CFCEF33FFEE33FE05
:06048000ED33FD02012333
:100486003F8000004120000042C80000447A00007E
:10049600461C400047C35000497424004B18968000
:1004A6004CBEBC205A0E1BCA6753C21C749DC5AEF7
:1004B600FB60065407601C23231204E4EB543860E7
:1004C600091204D01204DF120380ECF8EDF9EEFAFB
:1004D600EFCB22EB1204DF80F1543803241C900486
:1004E60086FE93FC0EEE93FD0EEE930ECE93FF2248
:03000000020E925B
:0C0E9200787FE4F6D8FD758121020ED9AE
:1004F600BB010689828A83E0225002E722BBFE0204
:09050600E32289828A83E4932236
:10050F00BB010CE58229F582E5833AF583E02250A1
:10051F0006E92582F8E622BBFE06E92582F8E222EB
:0D052F00E58229F582E5833AF583E4932205
:10053C00BB010689828A83F0225002F722BBFE019E
:02054C00F32298
:10054E00F8BB010DE58229F582E5833AF583E8F0E3
:10055E00225006E92582C8F622BBFE05E92582C88F
:02056E00F22277
:0E057000C3E49FFFE49EFEE49DFDE49CFC229C
:10057E00FAE2FB0808E2F925F0F218E2CA3AF22292
:09058E00EBF208EAF208E9F2229E
:10059700D083D082F8E4937012740193700DA3A3F3
:1005A70093F8740193F5828883E473740293686007
:0605B700EFA3A3A380DF07
:100E9E00020E02E493A3F8E493A34003F68001F25A
:100EAE0008DFF48029E493A3F85407240CC8C33355
:100EBE00C4540F4420C8834004F456800146F6DF24
:100ECE00E4800B0102040810204080900F1EE47E87
:100EDE00019360BCA3FF543F30E509541FFEE49319
:100EEE00A360010ECF54C025E060A840B8E493A3E0
:100EFE00FAE493A3F8E493A3C8C582C8CAC583CA0B
:100F0E00F0A3C8C582C8CAC583CADFE9DEE780BEC2
:010F8E000062
:00000001FF
