:1008D30075220112096012092812090DC2A37B00B7
:0E08E3007A00790B12050BAF2212097580F016
:10000E00EF4E600F7D027CEFDCFEDDFCEF1F70F02B
:03001E001E80ED54
:0100210022BC
:10077E00E4F51D20B0137F14FE12000E30B0FD7F85
:10078E00147E0012000E751D0120B1147F147E0020
:10079E0012000E30B1FD7F147E0012000E751D0288
:1007AE0020B2147F147E0012000E30B2FD7F147E34
:1007BE000012000E751D0320B3147F147E0012006C
:1007CE000E30B3FD7F147E0012000E751D04AF1D9A
:0107DE0022F8
:05096C00AF1C7E00221B
:030975000209551F
:06096000E4F51CF51B226A
:0B0955008F23E51C14700312085422CD
:04097100E4F51B226C
:10085400E51B1460161460232402702220B0037573
:100864001B017D027C007F010207117D017C007F5A
:0F0874000112071120B107E4F51B22E4F51C2245
:0C093F000A3B3F065B4F666D7D077F6F33
:10071100EF14B40800505490072675F003A4C58364
:1007210025F0C5837302073E02074202074602070E
:100731004A02074E02075602075E020766D2A480EC
:100741000ED2A48012D2A48016D2A4801AC2A4D23E
:10075100A3D2A28016C2A4D2A3C2A2800EC2A4C2F6
:10076100A3D2A28006C2A4C2A3C2A2743B2DF8E602
:0D077100F5807F017E0012000EE4F580226D
:10038200E4F51E7590FFC2932097137F14FE1200AE
:100392000E3097FD7F147E0012000E751E0120960E
:1003A200147F147E0012000E3097FD7F147E00121F
:1003B200000E751E052095147F147E0012000E306B
:1003C20097FD7F147E0012000E751E092094147F83
:1003D200147E0012000E3097FD7F147E0012000E74
:1003E200751E0D7590FFC2922097147F147E001225
:1003F200000E3097FD7F147E0012000E751E022043
:1004020096147F147E0012000E3097FD7F147E003A
:1004120012000E751E062095147F147E0012000E27
:100422003097FD7F147E0012000E751E0A20941470
:100432007F147E0012000E3097FD7F147E001200A2
:100442000E751E0E7590FFC2912097147F147E00C8
:1004520012000E3097FD7F147E0012000E751E03EF
:100462002096147F147E0012000E3097FD7F147EBA
:100472000012000E751E072095147F147E001200D4
:100482000E3097FD7F147E0012000E751E0B209415
:10049200147F147E0012000E3097FD7F147E00122E
:1004A200000E751E0F7590FFC2902097147F147E68
:1004B2000012000E3097FD7F147E0012000E751E92
:1004C200042096147F147E0012000E3097FD7F14D4
:1004D2007E0012000E751E082095147F147E0012F5
:1004E200000E3097FD7F147E0012000E751E0C2048
:1004F20094147F147E0012000E3097FD7F147E004C
:0805020012000E751E10AF1E61
:01050A0022CE
:100928005389F0438901758CFC758A18C28DD28C65
:07093800D2A9D2AFC2B9221F
:0100220022BB
:01097800225C
:03000B000207DF0A
:1007DF00C0E0C0D0C28C758CFC758A18051AE51A5A
:1007EF0070020519C39464E519940040080518E5D3
:1007FF001870020517E50AB4010F0516E516D39414
:10080F00054006751600750901D28CD0D0D0E032A4
:100883003131313131313131313131313131313155
:10089300313131310A003232323232323232323293
:0B08A3003232323232323232320A007E
:09094B00011500010A0001090078
:10090D0075985043878053890F438920758BF375F4
:0B091D008DF3C2ABD28ED2AFD2AC2261
:080003008F993099FDC299228A
:1008AE008B278A288929AB27AA28A9291205D56062
:1008BE00130529E5297002052814F91205D5FF1232
:0508CE00000380E2229E
:06096600AE07120003229F
:0608F1008B278A288929EB
:1008F700E4FFAB27AA28A9298F82758300E4120693
:050907001B0FBF0AED0B
:01090C0022C8
:06050B008B238A248925E0
:10051100E50970030205D4E4F509F50AE515C3946C
:100521000550030205BFE526D3951540030205BF1B
:10053100AB23AA24A9258526827583001205EE64C2
:10054100557076AF26FE8F82F583A31205EE64AA5D
:1005510070678F82F583A3A31205EE6455705A8FDD
:1005610082F583A3A3A31205EEB4011A74042FF537
:1005710082E433F5831205EEB4020B7BFF7A08792E
:1005810083120088C2A1AF267E008F828E83A3A32F
:10059100A3AB23AA24A9251205EEB4022174042FCA
:1005A100F582E433F5831205EEB403127BFF7A087A
:1005B1007999120088D2A18005052602051D7B00CC
:1005C1007A00790B1208AE7B007A00790B1208F1E0
:0305D100E4F51539
:0105D4002204
:0300230002081FB1
:10081F00C0E0C0D075D000C000C00730981EC2988D
:10082F00750A01E515C3940A500CAF150515740B25
:10083F002FF8A699800375150A751600D007D000FA
:05084F00D0D0D0E03222
:0300000002068570
:0C068500787FE4F6D8FD7581440206CCB5
:1005D500BB010689828A83E0225002E722BBFE0224
:0905E500E32289828A83E4932257
:1005EE00BB010CE58229F582E5833AF583E02250C2
:1005FE0006E92582F8E622BBFE06E92582F8E2220C
:0D060E00E58229F582E5833AF583E4932225
:10061B00F8BB010DE58229F582E5833AF583E8F015
:10062B00225006E92582C8F622BBFE05E92582C8C1
:02063B00F222A9
:10002600E536242AF8E60536227827300702782AAC
:10003600E475F00112064F0205D52000EB7F2ED2A3
:10004600008018EF540F2490D43440D4FF30040BB2
:10005600EF24BFB41A0050032461FFE53760021590
:1000660037053AE53A7002053930070D7827E47509
:10007600F00112064FEF02063D0209667403D2072D
:100086008003E4C207F5368B278A288929E4F537E9
:10009600F539F53AE53760077F2012006180F5757E
:1000A60038FFC201C200C202C203C205C206C208AC
:1000B60012002FFF700D3007057F00120072AF3A55
:1000C600AE3922B4255FC2D5C20412002FFF24D058
:1000D600B40A00501A75F00A783730D50508B6FF0D
:1000E6000106C6A426F620D5047002D20380D924C0
:1000F600CFB41A00EF5004C2E5D204020272D20154
:1001060080C6D20080C0D20280BCD2D580BAD205C9
:1001160080B47F201200612002077401B5370040C9
:10012600F1120026FF12006102009AD208D2068060
:1001360095120026FB120026FA120026F94A4B7089
:100146000679437A037BFF20022EE537602A7E007C
:100156008E827583001205EE60060EEE653870F02D
:10016600C2D5EBC0E0EAC0E0E9C0E0EE1202B9D0C9
:10017600E0F9D0E0FAD0E0FB1205D5FF60AAEBC0AB
:10018600E0EAC0E0E9C0E0120061D0E02401F9D065
:10019600E03400FAD0E0FBE5380460DCD538D980DD
:1001A600877BFF7A0279B5D202809C79108002792A
:1001B60008C206C2088008D2D5790A8004790AC224
:1001C600D5E538047002F538E4FAFDFEFF12002684
:1001D600FC7B08200113120026FD7B1030000A125A
:1001E6000026FE120026FF7B20EC3382D592D550E6
:1001F60013C3E43000069FFFE49EFEE42001039D46
:10020600FDE49CFCE4CBF8C201EC700CCFCECDCC67
:10021600E824F8F870F38017C3EF33FFEE33FEEDF2
:1002260033FDEC33FCEB33FB994002FB0FD8E9EBD3
:10023600300105F8D0E0C448B201C0E00AEC4D4EEA
:100246004F78207B0070C2EAB5380040BCC0E0128F
:1002560002BBD0F0D0E0200104C4C0E0C4B201C0AB
:10026600F012004AD0F0D5F0EB02009A12065F01B8
:10027600375301B15801084C01044201B54F01BD85
:0F0286004401BD49011D4301C35501A74601A70E
:100295004501A747036350010C2D01102E01332B97
:1002A500011423013120034C2A00CC480000012B06
:1002B5003F3F3F00790AA2D5200314300509B91044
:1002C500020404B9080104A2D52006025001042045
:1002D50002689202B537005034C0E07F2030031920
:1002E5007F30A20272067205500F120312C202C2BB
:1002F50006C205C2087F30800F300503E9C0E01251
:100305000061300503D0E0F9D0E0B537CC300517F2
:100315007F30B9100C1200617F583004077F788058
:1003250003B908031200613002057F2D0200617FC9
:10033500202008F87F2B2006F322920280CF286E1A
:10034500756C6C2900D2011200263001F8C20178C3
:100355003730D50108F60200CC2D5043495812001C
:10036500262403B405004001E490035E9312005275
:0D037500743A120052D2037537040201B130
:100691000208D3E493A3F8E493A34003F68001F2A4
:1006A10008DFF48029E493A3F85407240CC8C3336A
:1006B100C4540F4420C8834004F456800146F6DF39
:1006C100E4800B010204081020408090093FE47E81
:1006D100019360BCA3FF543F30E509541FFEE4932E
:1006E100A360010ECF54C025E060A840B8E493A3F5
:1006F100FAE493A3F8E493A3C8C582C8CAC583CA20
:10070100F0A3C8C582C8CAC583CADFE9DEE780BED7
:0109540000A2
:10063D00BB010689828A83F0225002F722BBFE019C
:02064D00F32296
:10064F00FAE6FB0808E6F925F0F618E6CA3AF622AC
:10065F00D083D082F8E4937012740193700DA3A32A
:10066F0093F8740193F5828883E47374029368603E
:06067F00EFA3A3A380DF3E
:00000001FF
