:10057600788E7401F2120B81120ADC120A76120AC4
:100586005B7F011208627807EFF27F021208627839
:1005960024EFF21207937801EFF26060E2640170D3
:1005A6005B7807E204F2E275F00584AFF0EFF270D3
:1005B600037824F27807E2FFB401057824742DF25B
:1005C600EFB4020578247432F2EFB403057824748C
:1005D6004BF2EFB4040578247464F27807E2FD7CEC
:1005E600007F011207FF7807E2FD7C007F011209F8
:1005F600637824E2FD7C007F02120963782EE260B4
:1006060018E4F27833E2FF7BFE7A0079331208CEE3
:100616007BFE7A0079331209BA788EE2FF12002641
:0306260002059931
:100B1F00EF4E600F7D027CEFDCFEDDFCEF1F70F00F
:030B2F001E80ED38
:010B320022A0
:100B0A00EF1FAC0670011E4C600A7D027CEFDCFE12
:040B1A00DDFC80EC92
:010B1E0022B4
:10079300E4788FF220B1157F14FE120B1F30B1FDE8
:1007A3007F147E00120B1F788F7401F220B0167F26
:1007B300147E00120B1F30B0FD7F147E00120B1F3E
:1007C300788F7402F220B2167F147E00120B1F3052
:1007D300B2FD7F147E00120B1F788F7403F220B3D7
:1007E300167F147E00120B1F30B3FD7F147E0012A0
:0B07F3000B1F788F7404F2788FE2FF78
:0107FE0022D8
:070003007809E2FF7E0022F4
:03002600020A3E8D
:070B8100E47809F218F222EA
:100A3E00788FEFF27809E214600F04700F7801E2FC
:0D0A4E00B4040978097403F22212089A22F8
:05001E00E47808F22265
:10089A007808E21460181460262402702620B10534
:1008AA0078087401F27D027C007F010207267D012F
:1008BA007C007F0112072620B009E47808F222E4BE
:0408CA007809F22295
:1006B500980A3F065B4F666D7D077F6F777C395ED5
:0A06C50079717638373E735C40000F
:10072600EF14B40800505490073B75F003A4C5833A
:1007360025F0C5837302075302075702075B0207BA
:100746005F02076302076B02077302077BD2A4806E
:100756000ED2A48012D2A48016D2A4801AC2A4D229
:10076600A3D2A28016C2A4D2A3C2A2800EC2A4C2E1
:10077600A3D2A28006C2A4C2A3C2A2740A2DF8E222
:0D078600F5807F017E00120B1FE4F580223C
:1007FF00EF14B40800505490081475F003A4C58387
:10080F0025F0C5837302082C020830020834020851
:10081F003802083C02084402084C020854D2A48053
:10082F000ED2A48012D2A48016D2A4801AC2A4D24F
:10083F00A3D2A28016C2A4D2A3C2A2800EC2A4C207
:10084F00A3D2A28006C2A4C2A3C2A2740A2DF8E248
:03085F00F58022FF
:10002E00E47822F27590FFC2932097157F14FE128A
:10003E000B1F3097FD7F147E00120B1F7822740168
:10004E00F22096167F147E00120B1F3096FD7F1441
:10005E007E00120B1F78227405F22095167F147EF7
:10006E0000120B1F3095FD7F147E00120B1F78229D
:10007E007409F22094167F147E00120B1F3094FD2B
:10008E007F147E00120B1F7822740DF27590FFC242
:10009E00922097167F147E00120B1F3097FD7F144F
:1000AE007E00120B1F78227402F22096167F147EA9
:1000BE0000120B1F3096FD7F147E00120B1F78224C
:1000CE007406F22095167F147E00120B1F3095FDDC
:1000DE007F147E00120B1F7822740AF22094167F72
:1000EE00147E00120B1F3094FD7F147E00120B1F26
:1000FE007822740EF27590FFC2912097167F147EAF
:10010E0000120B1F3097FD7F147E00120B1F7822FA
:10011E007403F22096167F147E00120B1F3096FD8C
:10012E007F147E00120B1F78227407F22095167F23
:10013E00147E00120B1F3095FD7F147E00120B1FD4
:10014E007822740BF22094167F147E00120B1F304F
:10015E0094FD7F147E00120B1F7822740FF275909F
:10016E00FFC2902097167F147E00120B1F3097FD52
:10017E007F147E00120B1F78227404F22096167FD5
:10018E00147E00120B1F3096FD7F147E00120B1F83
:10019E0078227408F22095167F147E00120B1F3001
:1001AE0095FD7F147E00120B1F7822740CF22094A2
:1001BE00167F147E00120B1F3094FD7F147E0012EA
:0B01CE000B1F78227410F27822E2FF71
:0101D9002203
:100ADC005389F0438901758A18758CFCC28DD28CB0
:070AEC00D2A9D2AFC2B9226A
:100AF30053890F438910758B20758DD1C28FD28E88
:070B0300D2ABD2AFC2BB224E
:100A7600E4F5C9F5C875CC9C75CDFF75CA9C75CBD8
:0A0A8600FFD2CAD2ADD2AFC2BD222A
:03000B0002000AE6
:01000A0032C3
:03001B00020029B7
:0100290032A4
:03002B00020902C5
:10090200C0E0C0D075D000C000C0077823E204F276
:10091200E2C394644002E4F27824E2FF18E2C39F47
:100922005004D2908002C290D007D000D0D0D0E044
:010932003292
:100B330055AA8000808055AA8100818155AA820030
:020B43008282AC
:0906CF00813D00812E00814000F4
:100A5B0075985043878053890F438920758BF375A5
:0B0A6B008DF3C2ABD28ED2AFD2AC2212
:030B6300EE93FF0F
:080B66008F993099FDC299221C
:1008CE00788FEBF208EAF208E9F2788FE2FB08E2A1
:1008DE00FA08E2F9120302601A788FE2FB0808E2C6
:1008EE00F92401F218E2FA3400F2120302FF120B9D
:0408FE006680D72217
:060B8F00AE07120B662206
:0A09BA00788FEBF208EAF208E9F288
:1009C400E4FF788FE2FB08E2FA08E2F98F8275838C
:0A09D40000E412031B0FEFB40AE861
:0109DE0022F6
:0300230002034B8A
:10034B00C0E0C083C082C0D075D000C000C004C064
:05035B0005C006C0070B
:10036000209803020472C298AD997840E2B4070065
:10037000400302047290037CF82828730203910260
:1003800003A20203B70203D20203E602041102042D
:1003900035ED7840B455067401F2020472E4F202BD
:1003A0000472ED7840B4AA0A7402F2783DE4F202D5
:1003B0000472E4F20204727829EDF208F2783DE268
:1003C0002433F8EDF2783DE204F278407403F2024F
:1003D00004727829E22DF208E26DF208EDF278401D
:1003E0007404F20204727829E22DF208E26DF278C8
:1003F0003DE2FF2433F8EDF2782BE2FCEF7840B5D4
:1004000004057405F280037404F2783DE204F2807E
:10041000617829E2B5050778407406F28054782E99
:100420007401F27840E4F2FE900B39120B630EEE89
:10043000B406F5803DAF05782AE2B50714782E742E
:1004400001F27E00900B33120B630EEEB406F580C2
:1004500015782E7401F27E00EE900B3F93FF120B85
:10046000660EEEB406F27840E4F2783DF27829F2B6
:0204700008F290
:10047200D007D006D005D004D000D0D0D082D0830F
:03048200D0E03295
:1004850000040004000416021802190618021904D3
:100495001D04180C11021102160614021604190483
:1004A500140C110412061102120419041108000299
:1004B5001902190219021806130213041804180860
:1004C5000004160218021906180219041D04180C56
:1004D500110211021606140216041904140C0F0257
:1004E500110212041902180419061B021B021D022F
:1004F500190A190218021602160218041504160C18
:1005050019021B021D061B021D0420041B0C1402EC
:1005150014021906180219041D041D1016021802EA
:10052500190418041B021B021906140A1E041D04D3
:100535001D0419041D0C1D042208200420041D029D
:100545001B021908000219021B0419021B021B04D5
:1005550020041D0C1D04220820081D021B02190879
:10056500000219021B0419021B061804160C0004CC
:01057500FF86
:1006D800A04A430000F88CF8F3F95BF9B8FA15FA68
:1006E80067FAB9FB04FB4BFB90FBCFFC10FC44FC06
:1006F80079FCACFCDCFD09FD34FD5CFD82FDA6FD4A
:10070800C8FDE8FE06FE22FE3DFE56FE6EFE85FE94
:0D0718009AFEAEFEC1FED3FEE4FEF4FF0328
:050B9500007FF7DFFE08
:010B9A002238
:0409DF00AD07AC06AE
:1009E300E4FBFAED25E0FFEC33FEC3EB9FEA9E50F8
:0D09F3000CB295120B950BBB00010A80E6BB
:010A000022D3
:10096300788FEFF208ECF208EDF2120B787FA01209
:100973000990120B57788FE2FF120990120B5778E8
:0D0983009008E2FF120990120B57020B883A
:04086200788FEFF2AA
:10086600120B787FA0120990120B57788FE2FF12B5
:100876000990120B57120B787FA1120990120B5791
:10088600120A017890EFF27F01120B6E120B887834
:0308960090E2FFEE
:01089900223C
:090B7800D2A0D2A1C2A0C2A122A8
:070B8800C2A0D2A1D2A022FD
:02099000AD07B1
:10099200E4FB74807E00A803088006CEA2E713CE93
:1009A20013D8F8FFEDF582EF558224FF92A0D2A171
:0709B200C2A10BEBB408DB4E
:0109B900221B
:100A0100E4FFD2A0FED2A130A00D7480A806088018
:0E0A110002C313D8FC4FFFC2A10EEEB408E7DB
:010A1F0022B4
:0A0B6E00EF24FF92A0D2A1C2A12241
:0B0B5700D2A0D2A1A2A0E433FFC2A1F3
:010B62002270
:0D000E00120A907FCC120AAA7F44020AAAAF
:10093300120A907FCC120AAA7FBE120AAA120A20B8
:10094300788DEFF2120A20EFFE788DE2FDEDFFAC19
:0F09530006EC12027FE4FBFA798078411201DD95
:010962002272
:100A9000D2B7C2B77FF7DFFED2B77F20DFFEA2B7A3
:090AA000E433FE7FF7DFFEAF0630
:010AA900222A
:100B4500C2B77E04DEFEEF24FF92B77E18DEFED22A
:010B5500B7E8
:010B5600227C
:100AC400C2B77F02DFFED2B77F02DFFEA2B7E433F4
:070AD400FE7F18DFFEAF06F4
:010ADB0022F8
:020AAA00AD0796
:100AAC00E4FC7401A804088002C333D8FC5DFF1277
:070ABC000B450CECB408EB44
:010AC3002210
:100A2000E4FDFC120AC4EF600D7401A80408800202
:0D0A3000C333D8FC4DFD0CECB408E8AF0555
:010A3D002296
:1001DA000202F7EC5D046005E8590470030202EDBF
:1001EA001202B8580460F6EC4860F2EC7004FDFEA6
:1001FA00FF22C860DB2481C85009C39860025006F8
:10020A000202F49850CAF582E9294B4A7005AB827A
:10021A000202E375F0007C1A7880C3EF9BEE9AED38
:10022A0099400DC3EF9BFFEE9AFEED99FDE842F06F
:10023A00DC23ACF0D0E0FFD0E0FED0E0FDAB8220C2
:10024A00E7101BEB60BAEC2CFCEF33FFEE33FEED4C
:10025A0033FD0202CFE803F830E705C0F075F0007D
:10026A00EF2FFFEE33FEED33FD40B830E7C280AA30
:10027A0075F020800E75F010800575F0087D007EFF
:10028A00007F003392D530D50312033DEC33401082
:10029A00EF33FFEE33FEED33FDEC33FCD5F0ED2208
:0E02AA00E5F0247EA2D513CC92E7CDCEFF2244
:1002B800E9D2E7C933E833F892D5EDD2E7CD33EC8C
:0702C80033FC5002B2D52205
:1002CF00EC30E7100FBF000C0EBE00080DBD000490
:1002DF000BEB6014A2D5EB13FCED92E7FD2274FF3C
:1002EF00FCFDFEFF22E480F8A2D574FF13FC7D8095
:0302FF00E480EFA9
:03000000020629CC
:0C062900787FE4F6D8FD758107020670AA
:10030200BB010689828A83E0225002E722BBFE02F9
:09031200E32289828A83E493222C
:10031B00F8BB010DE58229F582E5833AF583E8F018
:10032B00225006E92582C8F622BBFE05E92582C8C4
:02033B00F222AC
:0E033D00C3E49FFFE49EFEE49DFDE49CFC22D1
:10063500020576E493A3F8E493A34003F68001F260
:1006450008DFF48029E493A3F85407240CC8C333C6
:10065500C4540F4420C8834004F456800146F6DF95
:10066500E4800B01020408102040809006B5E47E6A
:10067500019360BCA3FF543F30E509541FFEE4938A
:10068500A360010ECF54C025E060A840B8E493A351
:10069500FAE493A3F8E493A3C8C582C8CAC583CA7C
:1006A500F0A3C8C582C8CAC583CADFE9DEE780BE34
:0107250000D3
:00000001FF
